{
  "contractName": "CaseManagement",
  "abi": [
    {
      "inputs": [],
      "payable": false,
      "stateMutability": "nonpayable",
      "type": "constructor"
    },
    {
      "anonymous": false,
      "inputs": [
        {
          "indexed": true,
          "internalType": "uint256",
          "name": "caseID",
          "type": "uint256"
        },
        {
          "indexed": false,
          "internalType": "string",
          "name": "ipfsHash",
          "type": "string"
        },
        {
          "indexed": false,
          "internalType": "address",
          "name": "complainant",
          "type": "address"
        }
      ],
      "name": "CaseRegistered",
      "type": "event"
    },
    {
      "anonymous": false,
      "inputs": [
        {
          "indexed": true,
          "internalType": "uint256",
          "name": "caseID",
          "type": "uint256"
        },
        {
          "indexed": true,
          "internalType": "uint256",
          "name": "evidenceID",
          "type": "uint256"
        },
        {
          "indexed": false,
          "internalType": "string",
          "name": "ipfsHash",
          "type": "string"
        },
        {
          "indexed": false,
          "internalType": "address",
          "name": "uploader",
          "type": "address"
        }
      ],
      "name": "EvidenceMapped",
      "type": "event"
    },
    {
      "anonymous": false,
      "inputs": [
        {
          "indexed": true,
          "internalType": "uint256",
          "name": "caseID",
          "type": "uint256"
        },
        {
          "indexed": true,
          "internalType": "uint256",
          "name": "evidenceID",
          "type": "uint256"
        },
        {
          "indexed": false,
          "internalType": "string",
          "name": "feedback",
          "type": "string"
        }
      ],
      "name": "HospitalFeedbackProvided",
      "type": "event"
    },
    {
      "anonymous": false,
      "inputs": [
        {
          "indexed": true,
          "internalType": "uint256",
          "name": "caseID",
          "type": "uint256"
        },
        {
          "indexed": true,
          "internalType": "uint256",
          "name": "evidenceID",
          "type": "uint256"
        },
        {
          "indexed": false,
          "internalType": "string",
          "name": "ipfsHash",
          "type": "string"
        }
      ],
      "name": "LabReportUploaded",
      "type": "event"
    },
    {
      "anonymous": false,
      "inputs": [
        {
          "indexed": true,
          "internalType": "uint256",
          "name": "caseID",
          "type": "uint256"
        },
        {
          "indexed": true,
          "internalType": "uint256",
          "name": "reportID",
          "type": "uint256"
        },
        {
          "indexed": false,
          "internalType": "string",
          "name": "ipfsHash",
          "type": "string"
        }
      ],
      "name": "PoliceReportUploaded",
      "type": "event"
    },
    {
      "constant": true,
      "inputs": [
        {
          "internalType": "uint256",
          "name": "",
          "type": "uint256"
        }
      ],
      "name": "caseEvidenceCounter",
      "outputs": [
        {
          "internalType": "uint256",
          "name": "",
          "type": "uint256"
        }
      ],
      "payable": false,
      "stateMutability": "view",
      "type": "function"
    },
    {
      "constant": true,
      "inputs": [
        {
          "internalType": "uint256",
          "name": "",
          "type": "uint256"
        },
        {
          "internalType": "uint256",
          "name": "",
          "type": "uint256"
        }
      ],
      "name": "caseToEvidenceIpfsHash",
      "outputs": [
        {
          "internalType": "string",
          "name": "",
          "type": "string"
        }
      ],
      "payable": false,
      "stateMutability": "view",
      "type": "function"
    },
    {
      "constant": true,
      "inputs": [
        {
          "internalType": "uint256",
          "name": "",
          "type": "uint256"
        }
      ],
      "name": "caseToIpfsHash",
      "outputs": [
        {
          "internalType": "string",
          "name": "",
          "type": "string"
        }
      ],
      "payable": false,
      "stateMutability": "view",
      "type": "function"
    },
    {
      "constant": true,
      "inputs": [
        {
          "internalType": "address",
          "name": "",
          "type": "address"
        },
        {
          "internalType": "uint256",
          "name": "",
          "type": "uint256"
        }
      ],
      "name": "complainantToCases",
      "outputs": [
        {
          "internalType": "uint256",
          "name": "",
          "type": "uint256"
        }
      ],
      "payable": false,
      "stateMutability": "view",
      "type": "function"
    },
    {
      "constant": true,
      "inputs": [
        {
          "internalType": "uint256",
          "name": "",
          "type": "uint256"
        }
      ],
      "name": "hospitalBool",
      "outputs": [
        {
          "internalType": "bool",
          "name": "",
          "type": "bool"
        }
      ],
      "payable": false,
      "stateMutability": "view",
      "type": "function"
    },
    {
      "constant": true,
      "inputs": [
        {
          "internalType": "uint256",
          "name": "",
          "type": "uint256"
        },
        {
          "internalType": "uint256",
          "name": "",
          "type": "uint256"
        }
      ],
      "name": "hospitalUploadedFeedback",
      "outputs": [
        {
          "internalType": "bool",
          "name": "",
          "type": "bool"
        }
      ],
      "payable": false,
      "stateMutability": "view",
      "type": "function"
    },
    {
      "constant": true,
      "inputs": [
        {
          "internalType": "address",
          "name": "",
          "type": "address"
        }
      ],
      "name": "isCourt",
      "outputs": [
        {
          "internalType": "bool",
          "name": "",
          "type": "bool"
        }
      ],
      "payable": false,
      "stateMutability": "view",
      "type": "function"
    },
    {
      "constant": true,
      "inputs": [
        {
          "internalType": "address",
          "name": "",
          "type": "address"
        }
      ],
      "name": "isHospital",
      "outputs": [
        {
          "internalType": "bool",
          "name": "",
          "type": "bool"
        }
      ],
      "payable": false,
      "stateMutability": "view",
      "type": "function"
    },
    {
      "constant": true,
      "inputs": [
        {
          "internalType": "address",
          "name": "",
          "type": "address"
        }
      ],
      "name": "isLab",
      "outputs": [
        {
          "internalType": "bool",
          "name": "",
          "type": "bool"
        }
      ],
      "payable": false,
      "stateMutability": "view",
      "type": "function"
    },
    {
      "constant": true,
      "inputs": [
        {
          "internalType": "address",
          "name": "",
          "type": "address"
        }
      ],
      "name": "isPolice",
      "outputs": [
        {
          "internalType": "bool",
          "name": "",
          "type": "bool"
        }
      ],
      "payable": false,
      "stateMutability": "view",
      "type": "function"
    },
    {
      "constant": true,
      "inputs": [
        {
          "internalType": "uint256",
          "name": "",
          "type": "uint256"
        }
      ],
      "name": "labBool",
      "outputs": [
        {
          "internalType": "bool",
          "name": "",
          "type": "bool"
        }
      ],
      "payable": false,
      "stateMutability": "view",
      "type": "function"
    },
    {
      "constant": true,
      "inputs": [
        {
          "internalType": "uint256",
          "name": "",
          "type": "uint256"
        },
        {
          "internalType": "uint256",
          "name": "",
          "type": "uint256"
        }
      ],
      "name": "labUploadedEvidence",
      "outputs": [
        {
          "internalType": "bool",
          "name": "",
          "type": "bool"
        }
      ],
      "payable": false,
      "stateMutability": "view",
      "type": "function"
    },
    {
      "constant": true,
      "inputs": [],
      "name": "nextCaseID",
      "outputs": [
        {
          "internalType": "uint256",
          "name": "",
          "type": "uint256"
        }
      ],
      "payable": false,
      "stateMutability": "view",
      "type": "function"
    },
    {
      "constant": true,
      "inputs": [],
      "name": "owner",
      "outputs": [
        {
          "internalType": "address",
          "name": "",
          "type": "address"
        }
      ],
      "payable": false,
      "stateMutability": "view",
      "type": "function"
    },
    {
      "constant": true,
      "inputs": [
        {
          "internalType": "uint256",
          "name": "",
          "type": "uint256"
        }
      ],
      "name": "policeBool",
      "outputs": [
        {
          "internalType": "bool",
          "name": "",
          "type": "bool"
        }
      ],
      "payable": false,
      "stateMutability": "view",
      "type": "function"
    },
    {
      "constant": true,
      "inputs": [
        {
          "internalType": "uint256",
          "name": "",
          "type": "uint256"
        },
        {
          "internalType": "uint256",
          "name": "",
          "type": "uint256"
        }
      ],
      "name": "policeUploadedEvidence",
      "outputs": [
        {
          "internalType": "bool",
          "name": "",
          "type": "bool"
        }
      ],
      "payable": false,
      "stateMutability": "view",
      "type": "function"
    },
    {
      "constant": true,
      "inputs": [
        {
          "internalType": "uint256",
          "name": "",
          "type": "uint256"
        },
        {
          "internalType": "uint256",
          "name": "",
          "type": "uint256"
        }
      ],
      "name": "policeUploadedReports",
      "outputs": [
        {
          "internalType": "bool",
          "name": "",
          "type": "bool"
        }
      ],
      "payable": false,
      "stateMutability": "view",
      "type": "function"
    },
    {
      "constant": false,
      "inputs": [
        {
          "internalType": "address",
          "name": "_police",
          "type": "address"
        }
      ],
      "name": "addPolice",
      "outputs": [],
      "payable": false,
      "stateMutability": "nonpayable",
      "type": "function"
    },
    {
      "constant": false,
      "inputs": [
        {
          "internalType": "address",
          "name": "_court",
          "type": "address"
        }
      ],
      "name": "addCourt",
      "outputs": [],
      "payable": false,
      "stateMutability": "nonpayable",
      "type": "function"
    },
    {
      "constant": false,
      "inputs": [
        {
          "internalType": "address",
          "name": "_lab",
          "type": "address"
        }
      ],
      "name": "addLab",
      "outputs": [],
      "payable": false,
      "stateMutability": "nonpayable",
      "type": "function"
    },
    {
      "constant": false,
      "inputs": [
        {
          "internalType": "address",
          "name": "_hospital",
          "type": "address"
        }
      ],
      "name": "addHospital",
      "outputs": [],
      "payable": false,
      "stateMutability": "nonpayable",
      "type": "function"
    },
    {
      "constant": false,
      "inputs": [
        {
          "internalType": "address",
          "name": "_police",
          "type": "address"
        }
      ],
      "name": "removePolice",
      "outputs": [],
      "payable": false,
      "stateMutability": "nonpayable",
      "type": "function"
    },
    {
      "constant": false,
      "inputs": [
        {
          "internalType": "address",
          "name": "_court",
          "type": "address"
        }
      ],
      "name": "removeCourt",
      "outputs": [],
      "payable": false,
      "stateMutability": "nonpayable",
      "type": "function"
    },
    {
      "constant": false,
      "inputs": [
        {
          "internalType": "address",
          "name": "_lab",
          "type": "address"
        }
      ],
      "name": "removeLab",
      "outputs": [],
      "payable": false,
      "stateMutability": "nonpayable",
      "type": "function"
    },
    {
      "constant": false,
      "inputs": [
        {
          "internalType": "address",
          "name": "_hospital",
          "type": "address"
        }
      ],
      "name": "removeHospital",
      "outputs": [],
      "payable": false,
      "stateMutability": "nonpayable",
      "type": "function"
    },
    {
      "constant": false,
      "inputs": [
        {
          "internalType": "string",
          "name": "_ipfsHash",
          "type": "string"
        },
        {
          "internalType": "address",
          "name": "_complainant",
          "type": "address"
        }
      ],
      "name": "registerCase",
      "outputs": [
        {
          "internalType": "uint256",
          "name": "",
          "type": "uint256"
        }
      ],
      "payable": false,
      "stateMutability": "nonpayable",
      "type": "function"
    },
    {
      "constant": false,
      "inputs": [
        {
          "internalType": "uint256",
          "name": "_caseID",
          "type": "uint256"
        },
        {
          "internalType": "string",
          "name": "_ipfsHash",
          "type": "string"
        }
      ],
      "name": "mapEvidence",
      "outputs": [
        {
          "internalType": "uint256",
          "name": "",
          "type": "uint256"
        },
        {
          "internalType": "uint256",
          "name": "",
          "type": "uint256"
        }
      ],
      "payable": false,
      "stateMutability": "nonpayable",
      "type": "function"
    },
    {
      "constant": false,
      "inputs": [
        {
          "internalType": "uint256",
          "name": "_caseID",
          "type": "uint256"
        },
        {
          "internalType": "string",
          "name": "_ipfsHash",
          "type": "string"
        }
      ],
      "name": "uploadLabReport",
      "outputs": [
        {
          "internalType": "uint256",
          "name": "",
          "type": "uint256"
        },
        {
          "internalType": "uint256",
          "name": "",
          "type": "uint256"
        }
      ],
      "payable": false,
      "stateMutability": "nonpayable",
      "type": "function"
    },
    {
      "constant": false,
      "inputs": [
        {
          "internalType": "uint256",
          "name": "_caseID",
          "type": "uint256"
        },
        {
          "internalType": "string",
          "name": "_ipfsHash",
          "type": "string"
        }
      ],
      "name": "uploadPoliceReport",
      "outputs": [
        {
          "internalType": "uint256",
          "name": "",
          "type": "uint256"
        },
        {
          "internalType": "uint256",
          "name": "",
          "type": "uint256"
        }
      ],
      "payable": false,
      "stateMutability": "nonpayable",
      "type": "function"
    },
    {
      "constant": false,
      "inputs": [
        {
          "internalType": "uint256",
          "name": "_caseID",
          "type": "uint256"
        },
        {
          "internalType": "string",
          "name": "_feedback",
          "type": "string"
        }
      ],
      "name": "provideHospitalFeedback",
      "outputs": [
        {
          "internalType": "uint256",
          "name": "",
          "type": "uint256"
        },
        {
          "internalType": "uint256",
          "name": "",
          "type": "uint256"
        }
      ],
      "payable": false,
      "stateMutability": "nonpayable",
      "type": "function"
    },
    {
      "constant": true,
      "inputs": [
        {
          "internalType": "uint256",
          "name": "_caseID",
          "type": "uint256"
        }
      ],
      "name": "getLabReports",
      "outputs": [
        {
          "internalType": "string[]",
          "name": "",
          "type": "string[]"
        }
      ],
      "payable": false,
      "stateMutability": "view",
      "type": "function"
    },
    {
      "constant": true,
      "inputs": [
        {
          "internalType": "uint256",
          "name": "_caseID",
          "type": "uint256"
        }
      ],
      "name": "getJsonHash",
      "outputs": [
        {
          "internalType": "string",
          "name": "",
          "type": "string"
        }
      ],
      "payable": false,
      "stateMutability": "view",
      "type": "function"
    },
    {
      "constant": true,
      "inputs": [
        {
          "internalType": "uint256",
          "name": "_caseID",
          "type": "uint256"
        }
      ],
      "name": "getIpfsHashes",
      "outputs": [
        {
          "internalType": "string[]",
          "name": "",
          "type": "string[]"
        }
      ],
      "payable": false,
      "stateMutability": "view",
      "type": "function"
    },
    {
      "constant": true,
      "inputs": [
        {
          "internalType": "uint256",
          "name": "_caseID",
          "type": "uint256"
        }
      ],
      "name": "getPoliceUploadedEvidences",
      "outputs": [
        {
          "internalType": "string[]",
          "name": "",
          "type": "string[]"
        }
      ],
      "payable": false,
      "stateMutability": "view",
      "type": "function"
    },
    {
      "constant": true,
      "inputs": [
        {
          "internalType": "uint256",
          "name": "_caseID",
          "type": "uint256"
        }
      ],
      "name": "getCaseBooleans",
      "outputs": [
        {
          "internalType": "bool",
          "name": "police",
          "type": "bool"
        },
        {
          "internalType": "bool",
          "name": "lab",
          "type": "bool"
        },
        {
          "internalType": "bool",
          "name": "hospital",
          "type": "bool"
        }
      ],
      "payable": false,
      "stateMutability": "view",
      "type": "function"
    },
    {
      "constant": true,
      "inputs": [
        {
          "internalType": "address",
          "name": "_complainant",
          "type": "address"
        }
      ],
      "name": "getCasesForComplainant",
      "outputs": [
        {
          "internalType": "uint256[]",
          "name": "",
          "type": "uint256[]"
        }
      ],
      "payable": false,
      "stateMutability": "view",
      "type": "function"
    },
    {
      "constant": true,
      "inputs": [
        {
          "internalType": "uint256",
          "name": "_caseID",
          "type": "uint256"
        }
      ],
      "name": "getPoliceReport",
      "outputs": [
        {
          "internalType": "string",
          "name": "",
          "type": "string"
        }
      ],
      "payable": false,
      "stateMutability": "view",
      "type": "function"
    },
    {
      "constant": true,
      "inputs": [
        {
          "internalType": "uint256",
          "name": "_caseID",
          "type": "uint256"
        }
      ],
      "name": "getHospitalFeedback",
      "outputs": [
        {
          "internalType": "string",
          "name": "",
          "type": "string"
        }
      ],
      "payable": false,
      "stateMutability": "view",
      "type": "function"
    },
    {
      "constant": true,
      "inputs": [
        {
          "internalType": "address",
          "name": "_user",
          "type": "address"
        }
      ],
      "name": "getUserRole",
      "outputs": [
        {
          "internalType": "string",
          "name": "",
          "type": "string"
        }
      ],
      "payable": false,
      "stateMutability": "view",
      "type": "function"
    },
    {
      "constant": true,
      "inputs": [],
      "name": "getAllCaseIDs",
      "outputs": [
        {
          "internalType": "uint256[]",
          "name": "",
          "type": "uint256[]"
        }
      ],
      "payable": false,
      "stateMutability": "view",
      "type": "function"
    }
  ],
  "bytecode": "0x6080604052600160005534801561001557600080fd5b50601080546001600160a01b03191633179055612484806100376000396000f3fe608060405234801561001057600080fd5b50600436106102485760003560e01c80637d010e781161013b578063aa162157116100b8578063e5ade2e11161007c578063e5ade2e114610539578063e6c525d21461054e578063f0611dd414610561578063f14d190f14610574578063ff8491de1461058757610248565b8063aa162157146104cb578063b1b5457b146104de578063bdf6c673146104f1578063d89ffd9514610504578063e04558bb1461052657610248565b8063949168cf116100ff578063949168cf1461046c5780639950b3501461047f578063a1ab278114610492578063a2f1e4d4146104a5578063a9698906146104b857610248565b80637d010e781461040b57806380ce36431461041e5780638da5cb5b146104315780639277a1ba14610446578063927acf941461045957610248565b80635052a82d116101c95780635e8e49001161018d5780635e8e4900146103915780635f144ba5146103b25780636331a8ea146103c557806367db93b1146103d85780636d4ddd9c146103eb57610248565b80635052a82d1461033257806352596bbe1461034557806356966f86146103585780635a1d13f31461036b5780635e3908801461037e57610248565b80632ec62df7116102105780632ec62df7146102d157806331e5ecaa146102e65780633aa78723146102f9578063412663931461030c5780634889f53b1461031f57610248565b8063028c4a021461024d578063163e8aa21461027657806317fc8a6a1461028b5780631b470bc71461029e57806327820851146102b1575b600080fd5b61026061025b366004611d8c565b61059a565b60405161026d91906121a7565b60405180910390f35b610289610284366004611c7f565b6105ba565b005b610260610299366004611d8c565b61060e565b6102896102ac366004611c7f565b61062e565b6102c46102bf366004611c7f565b61067c565b60405161026d91906121dd565b6102d96107f8565b60405161026d91906122ce565b6102896102f4366004611c7f565b6107fe565b610289610307366004611c7f565b610849565b6102c461031a366004611d8c565b610897565b6102c461032d366004611d26565b61093a565b610260610340366004611d8c565b6109e1565b610289610353366004611c7f565b610a01565b610289610366366004611c7f565b610a4c565b610260610379366004611d26565b610a9a565b61026061038c366004611c7f565b610aaf565b6103a461039f366004611d44565b610ac4565b60405161026d9291906122dc565b6102606103c0366004611d8c565b610bea565b6102d96103d3366004611d26565b610c0a565b6102d96103e6366004611ca5565b610c1c565b6103fe6103f9366004611d26565b610c4a565b60405161026d9190612185565b6103fe610419366004611d26565b610db2565b6102c461042c366004611d26565b611025565b61043961108c565b60405161026d9190612177565b610260610454366004611d26565b61109b565b6103a4610467366004611d44565b6110b0565b6103fe61047a366004611d26565b6111a8565b61026061048d366004611c7f565b61137a565b6103a46104a0366004611d44565b61138f565b6102c46104b3366004611d26565b6114b8565b6102896104c6366004611c7f565b611635565b6102d96104d9366004611cdf565b611680565b6102c46104ec366004611d26565b611791565b6102606104ff366004611c7f565b6118ef565b610517610512366004611d26565b611904565b60405161026d939291906121b5565b6103a4610534366004611d44565b611934565b610541611a2e565b60405161026d9190612196565b61026061055c366004611c7f565b611a9a565b61054161056f366004611c7f565b611aaf565b610260610582366004611d26565b611b1a565b610289610595366004611c7f565b611b2f565b600e60209081526000928352604080842090915290825290205460ff1681565b6010546001600160a01b031633146105ed5760405162461bcd60e51b81526004016105e49061226e565b60405180910390fd5b6001600160a01b03166000908152600760205260409020805460ff19169055565b600d60209081526000928352604080842090915290825290205460ff1681565b6010546001600160a01b031633146106585760405162461bcd60e51b81526004016105e49061226e565b6001600160a01b03166000908152600860205260409020805460ff19166001179055565b6001600160a01b03811660009081526005602052604090205460609060ff16156106c35750604080518082019091526006815265506f6c69636560d01b60208201526107f3565b6001600160a01b03821660009081526006602052604090205460ff1615610706575060408051808201909152600581526410dbdd5c9d60da1b60208201526107f3565b6001600160a01b03821660009081526007602052604090205460ff161561074757506040805180820190915260038152622630b160e91b60208201526107f3565b6001600160a01b03821660009081526008602052604090205460ff161561078d5750604080518082019091526008815267121bdcdc1a5d185b60c21b60208201526107f3565b6001600160a01b038216600090815260046020526040902054156107d3575060408051808201909152600b81526a10dbdb5c1b185a5b985b9d60aa1b60208201526107f3565b506040805180820190915260078152662ab735b737bbb760c91b60208201525b919050565b60005481565b6010546001600160a01b031633146108285760405162461bcd60e51b81526004016105e49061226e565b6001600160a01b03166000908152600560205260409020805460ff19169055565b6010546001600160a01b031633146108735760405162461bcd60e51b81526004016105e49061226e565b6001600160a01b03166000908152600760205260409020805460ff19166001179055565b6002602081815260009384526040808520825292845292829020805483516001821615610100026000190190911692909204601f810185900485028301850190935282825290929091908301828280156109325780601f1061090757610100808354040283529160200191610932565b820191906000526020600020905b81548152906001019060200180831161091557829003601f168201915b505050505081565b6000818152600260208181526040808420600180865290835293819020805482519581161561010002600019011693909304601f810183900483028501830190915280845260609392918301828280156109d55780601f106109aa576101008083540402835291602001916109d5565b820191906000526020600020905b8154815290600101906020018083116109b857829003601f168201915b50505050509050919050565b600c60209081526000928352604080842090915290825290205460ff1681565b6010546001600160a01b03163314610a2b5760405162461bcd60e51b81526004016105e49061226e565b6001600160a01b03166000908152600660205260409020805460ff19169055565b6010546001600160a01b03163314610a765760405162461bcd60e51b81526004016105e49061226e565b6001600160a01b03166000908152600660205260409020805460ff19166001179055565b600b6020526000908152604090205460ff1681565b60076020526000908152604090205460ff1681565b33600090815260086020526040812054819060ff16610af55760405162461bcd60e51b81526004016105e49061227e565b6000848152600a602052604090205460ff16610b235760405162461bcd60e51b81526004016105e49061222e565b60008481526003602090815260408083205460028352818420600190910180855290835292208551610b5792870190611b7d565b50600085815260036020526040908190208054600101905551819086907fa162cd0558900ddb91af8e127a95b5e3de54d348d6ce2c4b74c60c28a148725390610ba19088906121dd565b60405180910390a36000858152600b602090815260408083208054600160ff199182168117909255600e8452828520868652909352922080549091169091179055939492505050565b600f60209081526000928352604080842090915290825290205460ff1681565b60036020526000908152604090205481565b60046020528160005260406000208181548110610c3557fe5b90600052602060002001600091509150505481565b3360009081526005602052604090205460609060ff1680610c7a57503360009081526006602052604090205460ff165b610c965760405162461bcd60e51b81526004016105e4906122be565b6000828152600360209081526040918290205482518181528183028101909201909252606090828015610cdd57816020015b6060815260200190600190039081610cc85790505b50905060015b828111610daa576000858152600260208181526040808420858552825292839020805484516001821615610100026000190190911693909304601f8101839004830284018301909452838352919290830182828015610d835780601f10610d5857610100808354040283529160200191610d83565b820191906000526020600020905b815481529060010190602001808311610d6657829003601f168201915b5050505050826001830381518110610d9757fe5b6020908102919091010152600101610ce3565b509392505050565b3360009081526005602052604090205460609060ff1680610de257503360009081526006602052604090205460ff165b80610dfc57503360009081526008602052604090205460ff165b80610e1657503360009081526007602052604090205460ff165b610e325760405162461bcd60e51b81526004016105e4906122be565b6000828152600360205260408120549060015b828111610e7d576000858152600c6020908152604080832084845290915290205460ff1615610e75576001909101905b600101610e45565b5080610eed57604080516001808252818301909252606091816020015b6060815260200190600190039081610e9a5790505090506040518060600160405280602781526020016123ed6027913981600081518110610ed757fe5b60200260200101819052508093505050506107f3565b606081604051908082528060200260200182016040528015610f2357816020015b6060815260200190600190039081610f0e5790505b509050600060015b848111611018576000878152600c6020908152604080832084845290915290205460ff1615611010576000878152600260208181526040808420858552825292839020805484516001821615610100026000190190911693909304601f8101839004830284018301909452838352919290830182828015610fed5780601f10610fc257610100808354040283529160200191610fed565b820191906000526020600020905b815481529060010190602001808311610fd057829003601f168201915b5050505050838381518110610ffe57fe5b60209081029190910101526001909101905b600101610f2b565b50819450505050506107f3565b60016020818152600092835260409283902080548451600294821615610100026000190190911693909304601f81018390048302840183019094528383529192908301828280156109325780601f1061090757610100808354040283529160200191610932565b6010546001600160a01b031681565b600a6020526000908152604090205460ff1681565b33600090815260056020526040812054819060ff166110e15760405162461bcd60e51b81526004016105e4906122be565b6000848152600360209081526040808320546002835281842060019091018085529083529220855161111592870190611b7d565b50600085815260036020526040908190208054600101905551819086907fee9a6b7da615ec354ffd4f5565bc93565226340778c6b6b3ca3c848ddb231afa9061115f9088906121dd565b60405180910390a360008581526009602090815260408083208054600160ff199182168117909255600d8452828520868652909352922080549091169091179055939492505050565b60008181526003602052604081205460609160015b8281116111f5576000858152600f6020908152604080832084845290915290205460ff16156111ed576001909101905b6001016111bd565b508061124f57604080516001808252818301909252606091816020015b60608152602001906001900390816112125790505090506040518060600160405280602e8152602001612414602e913981600081518110610ed757fe5b60608160405190808252806020026020018201604052801561128557816020015b60608152602001906001900390816112705790505b509050600060015b848111611018576000878152600f6020908152604080832084845290915290205460ff1615611372576000878152600260208181526040808420858552825292839020805484516001821615610100026000190190911693909304601f810183900483028401830190945283835291929083018282801561134f5780601f106113245761010080835404028352916020019161134f565b820191906000526020600020905b81548152906001019060200180831161133257829003601f168201915b505050505083838151811061136057fe5b60209081029190910101526001909101905b60010161128d565b60066020526000908152604090205460ff1681565b33600090815260056020526040812054819060ff166113c05760405162461bcd60e51b81526004016105e4906122be565b3360009081526005602052604090205460ff166113ef5760405162461bcd60e51b81526004016105e49061225e565b6000848152600360209081526040808320546002835281842060019091018085529083529220855161142392870190611b7d565b50600085815260036020526040908190208054600101905551819086907f1911af2a108f1edc4be520743c9dc2582003d37aba89d8c34292a62e638a87399061146f908890339061220e565b60405180910390a360008581526009602090815260408083208054600160ff199182168117909255600f8452828520868652909352922080549091169091179055939492505050565b3360009081526005602052604090205460609060ff16806114e857503360009081526006602052604090205460ff165b6115045760405162461bcd60e51b81526004016105e4906122be565b60008281526009602052604090205460ff166115325760405162461bcd60e51b81526004016105e49061224e565b60008281526003602052604090205460015b81811161161c576000848152600d6020908152604080832084845290915290205460ff1615611614576000848152600260208181526040808420858552825292839020805484516001821615610100026000190190911693909304601f81018390048302840183019094528383529192908301828280156116065780601f106115db57610100808354040283529160200191611606565b820191906000526020600020905b8154815290600101906020018083116115e957829003601f168201915b5050505050925050506107f3565b600101611544565b5060405162461bcd60e51b81526004016105e49061228e565b6010546001600160a01b0316331461165f5760405162461bcd60e51b81526004016105e49061226e565b6001600160a01b03166000908152600860205260409020805460ff19169055565b60008054808252600160209081526040832085516116a092870190611b7d565b50600081815260026020908152604080832060018452825290912085516116c992870190611b7d565b506000818152600360209081526040808320805460019081019091556001600160a01b03871684526004835281842080549182018155845291909220018290555181907f18e4368eb31b967a3b2d1ede2cd63c37b30230a3bb15a8dff9793f0b382281399061173b90879087906121ee565b60405180910390a26001817f1911af2a108f1edc4be520743c9dc2582003d37aba89d8c34292a62e638a873986866040516117779291906121ee565b60405180910390a360008054600101905590505b92915050565b3360009081526005602052604090205460609060ff16806117c157503360009081526006602052604090205460ff165b806117db57503360009081526008602052604090205460ff165b6117f75760405162461bcd60e51b81526004016105e4906122be565b6000828152600b602052604090205460ff166118255760405162461bcd60e51b81526004016105e49061223e565b60008281526003602052604090205460015b8181116118d6576000848152600e6020908152604080832084845290915290205460ff16156118ce576000848152600260208181526040808420858552825292839020805484516001821615610100026000190190911693909304601f81018390048302840183019094528383529192908301828280156116065780601f106115db57610100808354040283529160200191611606565b600101611837565b5060405162461bcd60e51b81526004016105e49061229e565b60086020526000908152604090205460ff1681565b600090815260096020908152604080832054600a835281842054600b90935292205460ff92831693918316921690565b33600090815260076020526040812054819060ff166119655760405162461bcd60e51b81526004016105e4906122ae565b6000848152600360209081526040808320546002835281842060019091018085529083529220855161199992870190611b7d565b50600085815260036020526040908190208054600101905551819086907f1911af2a108f1edc4be520743c9dc2582003d37aba89d8c34292a62e638a8739906119e5908890339061220e565b60405180910390a36000858152600a602090815260408083208054600160ff199182168117909255600c8452828520868652909352922080549091169091179055939492505050565b606080600160005403604051908082528060200260200182016040528015611a60578160200160208202803883390190505b50905060015b600054811015611a935780826001830381518110611a8057fe5b6020908102919091010152600101611a66565b5090505b90565b60056020526000908152604090205460ff1681565b6001600160a01b0381166000908152600460209081526040918290208054835181840281018401909452808452606093928301828280156109d557602002820191906000526020600020905b815481526020019060010190808311611afb5750505050509050919050565b60096020526000908152604090205460ff1681565b6010546001600160a01b03163314611b595760405162461bcd60e51b81526004016105e49061226e565b6001600160a01b03166000908152600560205260409020805460ff19166001179055565b828054600181600116156101000203166002900490600052602060002090601f016020900481019282601f10611bbe57805160ff1916838001178555611beb565b82800160010185558215611beb579182015b82811115611beb578251825591602001919060010190611bd0565b50611bf7929150611bfb565b5090565b611a9791905b80821115611bf75760008155600101611c01565b803561178b816123cc565b600082601f830112611c3157600080fd5b8135611c44611c3f8261231e565b6122f7565b91508082526020830160208301858383011115611c6057600080fd5b611c6b838284612386565b50505092915050565b803561178b816123e3565b600060208284031215611c9157600080fd5b6000611c9d8484611c15565b949350505050565b60008060408385031215611cb857600080fd5b6000611cc48585611c15565b9250506020611cd585828601611c74565b9150509250929050565b60008060408385031215611cf257600080fd5b823567ffffffffffffffff811115611d0957600080fd5b611d1585828601611c20565b9250506020611cd585828601611c15565b600060208284031215611d3857600080fd5b6000611c9d8484611c74565b60008060408385031215611d5757600080fd5b6000611d638585611c74565b925050602083013567ffffffffffffffff811115611d8057600080fd5b611cd585828601611c20565b60008060408385031215611d9f57600080fd5b6000611cc48585611c74565b6000611db78383611eba565b9392505050565b6000611dca838361216e565b505060200190565b611ddb81612375565b82525050565b611ddb81612359565b6000611df58261234c565b611dff8185612350565b935083602082028501611e1185612346565b8060005b85811015611e4b5784840389528151611e2e8582611dab565b9450611e3983612346565b60209a909a0199925050600101611e15565b5091979650505050505050565b6000611e638261234c565b611e6d8185612350565b9350611e7883612346565b8060005b83811015611ea6578151611e908882611dbe565b9750611e9b83612346565b925050600101611e7c565b509495945050505050565b611ddb81612364565b6000611ec58261234c565b611ecf8185612350565b9350611edf818560208601612392565b611ee8816123c2565b9093019392505050565b6000611eff602b83612350565b7f4c6162207265706f727473206e6f7420617661696c61626c6520666f7220746881526a1a5cc818d85cd9481e595d60aa1b602082015260400192915050565b6000611f4c603183612350565b7f486f73706974616c20666565646261636b206e6f7420617661696c61626c6520815270199bdc881d1a1a5cc818d85cd9481e595d607a1b602082015260400192915050565b6000611f9f602d83612350565b7f506f6c696365207265706f7274206e6f7420617661696c61626c6520666f722081526c1d1a1a5cc818d85cd9481e595d609a1b602082015260400192915050565b6000611fee601f83612350565b7f4f6e6c7920706f6c6963652063616e2075706c6f61642065766964656e636500815260200192915050565b6000612027600d83612350565b6c2737ba103a34329037bbb732b960991b815260200192915050565b6000612050603483612350565b7f4f6e6c7920686f73706974616c732063616e2076696577207265706f72747320815273616e642070726f7669646520666565646261636b60601b602082015260400192915050565b60006120a6601783612350565b7f506f6c696365207265706f7274206e6f7420666f756e64000000000000000000815260200192915050565b60006120df601b83612350565b7f486f73706974616c20666565646261636b206e6f7420666f756e640000000000815260200192915050565b6000612118601c83612350565b7f4f6e6c79206c6162732063616e2075706c6f6164207265706f72747300000000815260200192915050565b6000612151600e83612350565b6d139bdd08185d5d1a1bdc9a5e995960921b815260200192915050565b611ddb81611a97565b6020810161178b8284611de1565b60208082528101611db78184611dea565b60208082528101611db78184611e58565b6020810161178b8284611eb1565b606081016121c38286611eb1565b6121d06020830185611eb1565b611c9d6040830184611eb1565b60208082528101611db78184611eba565b604080825281016121ff8185611eba565b9050611db76020830184611de1565b6040808252810161221f8185611eba565b9050611db76020830184611dd2565b6020808252810161178b81611ef2565b6020808252810161178b81611f3f565b6020808252810161178b81611f92565b6020808252810161178b81611fe1565b6020808252810161178b8161201a565b6020808252810161178b81612043565b6020808252810161178b81612099565b6020808252810161178b816120d2565b6020808252810161178b8161210b565b6020808252810161178b81612144565b6020810161178b828461216e565b604081016122ea828561216e565b611db7602083018461216e565b60405181810167ffffffffffffffff8111828210171561231657600080fd5b604052919050565b600067ffffffffffffffff82111561233557600080fd5b506020601f91909101601f19160190565b60200190565b5190565b90815260200190565b600061178b82612369565b151590565b6001600160a01b031690565b600061178b82600061178b82612359565b82818337506000910152565b60005b838110156123ad578181015183820152602001612395565b838111156123bc576000848401525b50505050565b601f01601f191690565b6123d581612359565b81146123e057600080fd5b50565b6123d581611a9756fe4e6f206c6162207265706f72747320617661696c61626c6520666f72207468697320636173652e4e6f2065766964656e6365732075706c6f6164656420627920706f6c69636520666f72207468697320636173652ea365627a7a72315820e653fed28cd9417c5181413b0b71144477e2bc21833800a817f2a4a591627f766c6578706572696d656e74616cf564736f6c63430005100040",
  "source": "// SPDX-License-Identifier: MIT\npragma solidity >=0.5.0 <0.9.0;\npragma experimental ABIEncoderV2;\n\ncontract CaseManagement {\n    uint public nextCaseID = 1;\n\n    mapping(uint => string) public caseToIpfsHash;\n    mapping(uint => mapping(uint => string)) public caseToEvidenceIpfsHash;\n    mapping(uint => uint) public caseEvidenceCounter;\n    mapping(address => uint[]) public complainantToCases;\n\n    mapping(address => bool) public isPolice;\n    mapping(address => bool) public isCourt;\n    mapping(address => bool) public isLab;\n    mapping(address => bool) public isHospital;\n\n    mapping(uint => bool) public policeBool;\n    mapping(uint => bool) public labBool;\n    mapping(uint => bool) public hospitalBool;\n    \n    mapping(uint => mapping(uint => bool)) public labUploadedEvidence; // Mapping to track which evidence was uploaded by the lab\n    mapping(uint => mapping(uint => bool)) public policeUploadedReports; // Mapping to track which reports were uploaded by the police\n    mapping(uint => mapping(uint => bool)) public hospitalUploadedFeedback; // Mapping to track hospital feedback\n    mapping(uint => mapping(uint => bool)) public policeUploadedEvidence; // Mapping to track which evidence was uploaded by the police\n\n\n    event CaseRegistered(uint indexed caseID, string ipfsHash, address complainant);\n    event EvidenceMapped(uint indexed caseID, uint indexed evidenceID, string ipfsHash, address uploader);\n    event LabReportUploaded(uint indexed caseID, uint indexed evidenceID, string ipfsHash);\n    event PoliceReportUploaded(uint indexed caseID, uint indexed reportID, string ipfsHash);\n    event HospitalFeedbackProvided(uint indexed caseID, uint indexed evidenceID, string feedback);\n\n    address public owner;\n\n    constructor () public {\n        owner = msg.sender;\n    }\n\n    modifier onlyOwner() {\n        require(msg.sender == owner, \"Not the owner\");\n        _;\n    }\n\n    modifier onlyPolice() {\n        require(isPolice[msg.sender], \"Not authorized\");\n        _;\n    }\n\n    modifier onlyComplainant(uint _caseID) {\n        bool isComplainantOfCase = false;\n        uint[] memory complainantCases = complainantToCases[msg.sender];\n        for (uint i = 0; i < complainantCases.length; i++) {\n            if (complainantCases[i] == _caseID) {\n                isComplainantOfCase = true;\n                break;\n            }\n        }\n        require(isComplainantOfCase, \"Not authorized\");\n        _;\n    }\n\n    modifier onlyPoliceOrCourt() {\n        require(isPolice[msg.sender] || isCourt[msg.sender], \"Not authorized\");\n        _;\n    }\n\n    modifier onlyPoliceOrCourtOrHospital() {\n        require(isPolice[msg.sender] || isCourt[msg.sender] || isHospital[msg.sender], \"Not authorized\");\n        _;\n    }\n    modifier onlyPoliceOrCourtOrHospitalOrLab() {\n        require(isPolice[msg.sender] || isCourt[msg.sender] || isHospital[msg.sender] || isLab[msg.sender], \"Not authorized\");\n        _;\n    }\n\n    modifier onlyLab() {\n        require(isLab[msg.sender], \"Only labs can upload reports\");\n        _;\n    }\n\n    modifier onlyHospital() {\n        require(isHospital[msg.sender], \"Only hospitals can view reports and provide feedback\");\n        _;\n    }\n\n    function addPolice(address _police) external onlyOwner {\n        isPolice[_police] = true;\n    }\n\n    function addCourt(address _court) external onlyOwner {\n        isCourt[_court] = true;\n    }\n\n    function addLab(address _lab) external onlyOwner {\n        isLab[_lab] = true;\n    }\n\n    function addHospital(address _hospital) external onlyOwner {\n        isHospital[_hospital] = true;\n    }\n\n    function removePolice(address _police) external onlyOwner {\n        isPolice[_police] = false;\n    }\n\n    function removeCourt(address _court) external onlyOwner {\n        isCourt[_court] = false;\n    }\n\n    function removeLab(address _lab) external onlyOwner {\n        isLab[_lab] = false;\n    }\n\n    function removeHospital(address _hospital) external onlyOwner {\n        isHospital[_hospital] = false;\n    }\n\n    function registerCase(string memory _ipfsHash, address _complainant) public returns (uint) {\n        uint caseID = nextCaseID;\n        caseToIpfsHash[caseID] = _ipfsHash;\n        caseToEvidenceIpfsHash[caseID][1] = _ipfsHash; // First evidence ID set to 1\n        caseEvidenceCounter[caseID]++;\n\n        complainantToCases[_complainant].push(caseID); // Map complainant to case ID\n\n        emit CaseRegistered(caseID, _ipfsHash, _complainant);\n        emit EvidenceMapped(caseID, 1, _ipfsHash, _complainant);\n        nextCaseID++;\n        return caseID;\n    }\n\n    function mapEvidence(uint _caseID, string memory _ipfsHash) public onlyPolice returns (uint, uint) {\n        require(isPolice[msg.sender], \"Only police can upload evidence\");\n\n        uint evidenceID = caseEvidenceCounter[_caseID] + 1;\n        caseToEvidenceIpfsHash[_caseID][evidenceID] = _ipfsHash;\n        caseEvidenceCounter[_caseID]++;\n\n        emit EvidenceMapped(_caseID, evidenceID, _ipfsHash, msg.sender);\n        // Set policeBool to true for this case\n        policeBool[_caseID] = true;\n        // Mark this evidence as uploaded by the police\n        policeUploadedEvidence[_caseID][evidenceID] = true;\n        return (_caseID, evidenceID);\n    }\n\n    function uploadLabReport(uint _caseID, string memory _ipfsHash) public onlyLab returns (uint, uint) {\n        uint evidenceID = caseEvidenceCounter[_caseID] + 1;\n        caseToEvidenceIpfsHash[_caseID][evidenceID] = _ipfsHash;\n        caseEvidenceCounter[_caseID]++;\n\n        emit EvidenceMapped(_caseID, evidenceID, _ipfsHash, msg.sender);\n        // Set labBool to true for this case\n        labBool[_caseID] = true;\n        // Mark this evidence as uploaded by the lab\n        labUploadedEvidence[_caseID][evidenceID] = true;\n        return (_caseID, evidenceID);\n    }\n\n    function uploadPoliceReport(uint _caseID, string memory _ipfsHash) public onlyPolice returns (uint, uint) {\n        uint reportID = caseEvidenceCounter[_caseID] + 1;\n        caseToEvidenceIpfsHash[_caseID][reportID] = _ipfsHash;\n        caseEvidenceCounter[_caseID]++;\n\n        emit PoliceReportUploaded(_caseID, reportID, _ipfsHash);\n        // Set policeBool to true for this case\n        policeBool[_caseID] = true;\n        // Mark this report as uploaded by the police\n        policeUploadedReports[_caseID][reportID] = true;\n        return (_caseID, reportID);\n    }\n\n    function provideHospitalFeedback(uint _caseID, string memory _feedback) public onlyHospital returns (uint, uint) {\n        require(labBool[_caseID], \"Lab reports not available for this case yet\");\n        uint feedbackID = caseEvidenceCounter[_caseID] + 1;\n        caseToEvidenceIpfsHash[_caseID][feedbackID] = _feedback;\n        caseEvidenceCounter[_caseID]++;\n\n        emit HospitalFeedbackProvided(_caseID, feedbackID, _feedback);\n        // Set hospitalBool to true for this case\n        hospitalBool[_caseID] = true;\n        // Mark this feedback as uploaded by the hospital\n        hospitalUploadedFeedback[_caseID][feedbackID] = true;\n        return (_caseID, feedbackID);\n    }\n\n    function getLabReports(uint _caseID) public view onlyPoliceOrCourtOrHospitalOrLab returns (string[] memory) {\n        uint evidenceCount = caseEvidenceCounter[_caseID];\n        uint labReportCount = 0;\n        for (uint i = 1; i <= evidenceCount; i++) {\n            if (labUploadedEvidence[_caseID][i]) {\n                labReportCount++;\n            }\n        }\n        if (labReportCount == 0) {\n            string[] memory noReports = new string[](1);\n            noReports[0] = \"No lab reports available for this case.\";\n            return noReports;\n        } else {\n            string[] memory labReports = new string[](labReportCount);\n            uint index = 0;\n            for (uint i = 1; i <= evidenceCount; i++) {\n                if (labUploadedEvidence[_caseID][i]) {\n                    labReports[index] = caseToEvidenceIpfsHash[_caseID][i];\n                    index++;\n                }\n            }\n            return labReports;\n        }\n    }\n\n    function getJsonHash(uint _caseID) public view returns (string memory){\n        return caseToEvidenceIpfsHash[_caseID][1];\n    }\n\n    function getIpfsHashes(uint _caseID) public view onlyPoliceOrCourt returns (string[] memory) {\n        uint evidenceCount = caseEvidenceCounter[_caseID];\n        string[] memory ipfsHashes = new string[](evidenceCount);\n\n        for (uint i = 1; i <= evidenceCount; i++) {\n            ipfsHashes[i - 1] = caseToEvidenceIpfsHash[_caseID][i];\n        }\n\n        return ipfsHashes;\n    }\n\n    function getPoliceUploadedEvidences(uint _caseID) public view returns (string[] memory) {\n        uint evidenceCount = caseEvidenceCounter[_caseID];\n        uint policeEvidenceCount = 0;\n        for (uint i = 1; i <= evidenceCount; i++) {\n            if (policeUploadedEvidence[_caseID][i]) {\n                policeEvidenceCount++;\n            }\n        }\n        if (policeEvidenceCount == 0) {\n            string[] memory noEvidences = new string[](1);\n            noEvidences[0] = \"No evidences uploaded by police for this case.\";\n            return noEvidences;\n        } else {\n            string[] memory policeEvidences = new string[](policeEvidenceCount);\n            uint index = 0;\n            for (uint i = 1; i <= evidenceCount; i++) {\n                if (policeUploadedEvidence[_caseID][i]) {\n                    policeEvidences[index] = caseToEvidenceIpfsHash[_caseID][i];\n                    index++;\n                }\n            }\n            return policeEvidences;\n        }\n    }\n\n\n    function getCaseBooleans(uint _caseID) public view returns (bool police, bool lab, bool hospital) {\n        return (policeBool[_caseID], labBool[_caseID], hospitalBool[_caseID]);\n    }\n\n    function getCasesForComplainant(address _complainant) public view returns (uint[] memory) {\n        return complainantToCases[_complainant];\n    }\n\n    function getPoliceReport(uint _caseID) public view onlyPoliceOrCourt returns (string memory) {\n        require(policeBool[_caseID], \"Police report not available for this case yet\");\n        uint evidenceCount = caseEvidenceCounter[_caseID];\n        for (uint i = 1; i <= evidenceCount; i++) {\n            if (policeUploadedReports[_caseID][i]) {\n                return caseToEvidenceIpfsHash[_caseID][i];\n            }\n        }\n        revert(\"Police report not found\");\n    }\n\n    function getHospitalFeedback(uint _caseID) public view onlyPoliceOrCourtOrHospital returns (string memory) {\n        require(hospitalBool[_caseID], \"Hospital feedback not available for this case yet\");\n        uint evidenceCount = caseEvidenceCounter[_caseID];\n        for (uint i = 1; i <= evidenceCount; i++) {\n            if (hospitalUploadedFeedback[_caseID][i]) {\n                return caseToEvidenceIpfsHash[_caseID][i];\n            }\n        }\n        revert(\"Hospital feedback not found\");\n    }\n\n    function getUserRole(address _user) public view returns (string memory) {\n        if (isPolice[_user]) {\n            return \"Police\";\n        } else if (isCourt[_user]) {\n            return \"Court\";\n        } else if (isLab[_user]) {\n            return \"Lab\";\n        } else if (isHospital[_user]) {\n            return \"Hospital\";\n        } else if (complainantToCases[_user].length > 0) {\n            return \"Complainant\";\n        } else {\n            return \"Unknown\";\n        }\n    }\n\n    function getAllCaseIDs() public view returns (uint[] memory) {\n        uint[] memory allCaseIDs = new uint[](nextCaseID - 1); // Initialize array with appropriate size\n        for (uint i = 1; i < nextCaseID; i++) {\n            allCaseIDs[i - 1] = i;\n        }\n        return allCaseIDs;\n    }\n}\n// pragma solidity >=0.5.0 <0.9.0;\n// pragma experimental ABIEncoderV2;\n\n// contract CaseManagement {\n//     uint public nextCaseID = 1;\n\n//     mapping(uint => string) public caseToIpfsHash;\n//     mapping(uint => mapping(uint => string)) public caseToEvidenceIpfsHash;\n//     mapping(uint => uint) public caseEvidenceCounter;\n//     mapping(address => uint[]) public complainantToCases;\n\n//     mapping(address => bool) public isPolice;\n//     mapping(address => bool) public isCourt;\n//     mapping(address => bool) public isLab;\n//     mapping(address => bool) public isHospital;\n\n//     mapping(uint => bool) public policeBool;\n//     mapping(uint => bool) public labBool;\n//     mapping(uint => bool) public hospitalBool;\n    \n//     mapping(uint => mapping(uint => bool)) public labUploadedEvidence; // Mapping to track which evidence was uploaded by the lab\n\n//     event CaseRegistered(uint indexed caseID, string ipfsHash, address complainant);\n//     event EvidenceMapped(uint indexed caseID, uint indexed evidenceID, string ipfsHash, address uploader);\n//     event LabReportUploaded(uint indexed caseID, uint indexed evidenceID, string ipfsHash);\n//     event HospitalFeedbackProvided(uint indexed caseID, uint indexed evidenceID, string feedback);\n\n//     address public owner;\n\n//     constructor () public {\n//         owner = msg.sender;\n//     }\n\n//     modifier onlyOwner() {\n//         require(msg.sender == owner, \"Not the owner\");\n//         _;\n//     }\n\n//     modifier onlyPolice() {\n//         require(isPolice[msg.sender], \"Not authorized\");\n//         _;\n//     }\n\n//     modifier onlyComplainant(uint _caseID) {\n//         bool isComplainantOfCase = false;\n//         uint[] memory complainantCases = complainantToCases[msg.sender];\n//         for (uint i = 0; i < complainantCases.length; i++) {\n//             if (complainantCases[i] == _caseID) {\n//                 isComplainantOfCase = true;\n//                 break;\n//             }\n//         }\n//         require(isComplainantOfCase, \"Not authorized\");\n//         _;\n//     }\n\n//     modifier onlyPoliceOrCourt() {\n//         require(isPolice[msg.sender] || isCourt[msg.sender], \"Not authorized\");\n//         _;\n//     }\n\n//     modifier onlyPoliceOrCourtOrHospital() {\n//         require(isPolice[msg.sender] || isCourt[msg.sender] || isHospital[msg.sender], \"Not authorized\");\n//         _;\n//     }\n\n//     modifier onlyLab() {\n//         require(isLab[msg.sender], \"Only labs can upload reports\");\n//         _;\n//     }\n\n//     modifier onlyHospital() {\n//         require(isHospital[msg.sender], \"Only hospitals can view reports and provide feedback\");\n//         _;\n//     }\n\n//     function addPolice(address _police) external onlyOwner {\n//         isPolice[_police] = true;\n//     }\n\n//     function addCourt(address _court) external onlyOwner {\n//         isCourt[_court] = true;\n//     }\n\n//     function addLab(address _lab) external onlyOwner {\n//         isLab[_lab] = true;\n//     }\n\n//     function addHospital(address _hospital) external onlyOwner {\n//         isHospital[_hospital] = true;\n//     }\n\n//     function removePolice(address _police) external onlyOwner {\n//         isPolice[_police] = false;\n//     }\n\n//     function removeCourt(address _court) external onlyOwner {\n//         isCourt[_court] = false;\n//     }\n\n//     function removeLab(address _lab) external onlyOwner {\n//         isLab[_lab] = false;\n//     }\n\n//     function removeHospital(address _hospital) external onlyOwner {\n//         isHospital[_hospital] = false;\n//     }\n\n//     function registerCase(string memory _ipfsHash, address _complainant) public returns (uint) {\n//         uint caseID = nextCaseID;\n//         caseToIpfsHash[caseID] = _ipfsHash;\n//         caseToEvidenceIpfsHash[caseID][1] = _ipfsHash; // First evidence ID set to 1\n//         caseEvidenceCounter[caseID]++;\n\n//         complainantToCases[_complainant].push(caseID); // Map complainant to case ID\n\n//         emit CaseRegistered(caseID, _ipfsHash, _complainant);\n//         emit EvidenceMapped(caseID, 1, _ipfsHash, _complainant);\n//         nextCaseID++;\n//         return caseID;\n//     }\n\n//     function mapEvidence(uint _caseID, string memory _ipfsHash) public onlyPolice returns (uint, uint) {\n//         require(isPolice[msg.sender], \"Only police can upload evidence\");\n\n//         uint evidenceID = caseEvidenceCounter[_caseID] + 1;\n//         caseToEvidenceIpfsHash[_caseID][evidenceID] = _ipfsHash;\n//         caseEvidenceCounter[_caseID]++;\n\n//         emit EvidenceMapped(_caseID, evidenceID, _ipfsHash, msg.sender);\n//         // Set policeBool to true for this case\n//         policeBool[_caseID] = true;\n//         return (_caseID, evidenceID);\n//     }\n\n//     function uploadLabReport(uint _caseID, string memory _ipfsHash) public onlyLab returns (uint, uint) {\n//         uint evidenceID = caseEvidenceCounter[_caseID] + 1;\n//         caseToEvidenceIpfsHash[_caseID][evidenceID] = _ipfsHash;\n//         caseEvidenceCounter[_caseID]++;\n\n//         emit EvidenceMapped(_caseID, evidenceID, _ipfsHash, msg.sender);\n//         // Set labBool to true for this case\n//         labBool[_caseID] = true;\n//         // Mark this evidence as uploaded by the lab\n//         labUploadedEvidence[_caseID][evidenceID] = true;\n//         return (_caseID, evidenceID);\n//     }\n\n//     function provideHospitalFeedback(uint _caseID, string memory _feedback) public onlyHospital returns (uint, uint) {\n//         require(labBool[_caseID], \"Lab reports not available for this case yet\");\n//         uint evidenceID = caseEvidenceCounter[_caseID] + 1;\n\n//         caseToEvidenceIpfsHash[_caseID][evidenceID] = _feedback;\n//         caseEvidenceCounter[_caseID]++;\n\n//         emit HospitalFeedbackProvided(_caseID, evidenceID, _feedback);\n//         return (_caseID, evidenceID);\n//     }\n\n//     function getLabReports(uint _caseID) public view onlyHospitalOrLab returns (string[] memory) {\n//         uint evidenceCount = caseEvidenceCounter[_caseID];\n//         uint labReportCount = 0;\n//         for (uint i = 1; i <= evidenceCount; i++) {\n//             if (labUploadedEvidence[_caseID][i]) {\n//                 labReportCount++;\n//             }\n//         }\n//         if (labReportCount == 0) {\n//             string[] memory noReports = new string[](1);\n//             noReports[0] = \"No lab reports available for this case.\";\n//             return noReports;\n//         } else {\n//             string[] memory labReports = new string[](labReportCount);\n//             uint index = 0;\n//             for (uint i = 1; i <= evidenceCount; i++) {\n//                 if (labUploadedEvidence[_caseID][i]) {\n//                     labReports[index] = caseToEvidenceIpfsHash[_caseID][i];\n//                     index++;\n//                 }\n//             }\n//             return labReports;\n//         }\n//     }\n\n//     function getIpfsHashes(uint _caseID) public view onlyPoliceOrCourt returns (string[] memory) {\n//         uint evidenceCount = caseEvidenceCounter[_caseID];\n//         string[] memory ipfsHashes = new string[](evidenceCount);\n\n//         for (uint i = 1; i <= evidenceCount; i++) {\n//             ipfsHashes[i - 1] = caseToEvidenceIpfsHash[_caseID][i];\n//         }\n\n//         return ipfsHashes;\n//     }\n\n//     function getCaseBooleans(uint _caseID) public view returns (bool police, bool lab, bool hospital) {\n//         return (policeBool[_caseID], labBool[_caseID], hospitalBool[_caseID]);\n//     }\n\n//     function getCasesForComplainant(address _complainant) public view returns (uint[] memory) {\n//         return complainantToCases[_complainant];\n//     }\n\n//     function getUserRole(address _user) public view returns (string memory) {\n//         if (isPolice[_user]) {\n//             return \"Police\";\n//         } else if (isCourt[_user]) {\n//             return \"Court\";\n//         } else if (isLab[_user]) {\n//             return \"Lab\";\n//         } else if (isHospital[_user]) {\n//             return \"Hospital\";\n//         } else if (complainantToCases[_user].length > 0) {\n//             return \"Complainant\";\n//         } else {\n//             return \"Unknown\";\n//         }\n//     }\n\n//     function getAllCaseIDs() public view returns (uint[] memory) {\n//         uint[] memory allCaseIDs = new uint[](nextCaseID - 1); // Initialize array with appropriate size\n//         for (uint i = 1; i < nextCaseID; i++) {\n//             allCaseIDs[i - 1] = i;\n//         }\n//         return allCaseIDs;\n//     }\n// }\n\n\n",
  "sourcePath": "D:\\Evishield\\Evishield\\contracts\\CaseManagement.sol",
  "compiler": {
    "name": "solc",
    "version": "0.5.16+commit.9c3226ce.Emscripten.clang"
  },
  "schemaVersion": "3.4.16",
  "updatedAt": "2024-02-28T12:54:21.045Z",
  "networkType": "ethereum",
  "devdoc": {
    "methods": {}
  },
  "userdoc": {
    "methods": {}
  }
}